{
  "_format": "hh-sol-artifact-1",
  "contractName": "BlindAuction",
  "sourceName": "contracts/BlindAuction.sol",
  "abi": [
    {
      "inputs": [],
      "name": "InvalidInitialization",
      "type": "error"
    },
    {
      "inputs": [],
      "name": "NotInitializing",
      "type": "error"
    },
    {
      "anonymous": false,
      "inputs": [
        {
          "indexed": false,
          "internalType": "uint64",
          "name": "version",
          "type": "uint64"
        }
      ],
      "name": "Initialized",
      "type": "event"
    },
    {
      "inputs": [
        {
          "internalType": "uint256",
          "name": "merkleTreeDepth",
          "type": "uint256"
        },
        {
          "internalType": "uint256",
          "name": "merkleTreeRoot",
          "type": "uint256"
        },
        {
          "internalType": "uint256",
          "name": "nullifier",
          "type": "uint256"
        },
        {
          "internalType": "uint256[8]",
          "name": "points",
          "type": "uint256[8]"
        },
        {
          "internalType": "uint256[2]",
          "name": "_proof_a",
          "type": "uint256[2]"
        },
        {
          "internalType": "uint256[2][2]",
          "name": "_proof_b",
          "type": "uint256[2][2]"
        },
        {
          "internalType": "uint256[2]",
          "name": "_proof_c",
          "type": "uint256[2]"
        },
        {
          "internalType": "uint256[6]",
          "name": "inputs",
          "type": "uint256[6]"
        }
      ],
      "name": "bid",
      "outputs": [],
      "stateMutability": "nonpayable",
      "type": "function"
    },
    {
      "inputs": [],
      "name": "bidWinner",
      "outputs": [
        {
          "internalType": "uint256",
          "name": "",
          "type": "uint256"
        }
      ],
      "stateMutability": "view",
      "type": "function"
    },
    {
      "inputs": [
        {
          "internalType": "uint256",
          "name": "",
          "type": "uint256"
        }
      ],
      "name": "bids",
      "outputs": [
        {
          "internalType": "uint256",
          "name": "",
          "type": "uint256"
        }
      ],
      "stateMutability": "view",
      "type": "function"
    },
    {
      "inputs": [],
      "name": "createGroup",
      "outputs": [],
      "stateMutability": "nonpayable",
      "type": "function"
    },
    {
      "inputs": [],
      "name": "getBids",
      "outputs": [
        {
          "internalType": "uint256[]",
          "name": "",
          "type": "uint256[]"
        }
      ],
      "stateMutability": "view",
      "type": "function"
    },
    {
      "inputs": [],
      "name": "getMaxBid",
      "outputs": [
        {
          "internalType": "uint256",
          "name": "",
          "type": "uint256"
        }
      ],
      "stateMutability": "view",
      "type": "function"
    },
    {
      "inputs": [],
      "name": "groupId",
      "outputs": [
        {
          "internalType": "uint256",
          "name": "",
          "type": "uint256"
        }
      ],
      "stateMutability": "view",
      "type": "function"
    },
    {
      "inputs": [
        {
          "internalType": "address",
          "name": "",
          "type": "address"
        }
      ],
      "name": "hashedBidsToBidders",
      "outputs": [
        {
          "internalType": "uint256",
          "name": "",
          "type": "uint256"
        }
      ],
      "stateMutability": "view",
      "type": "function"
    },
    {
      "inputs": [],
      "name": "highestBid",
      "outputs": [
        {
          "internalType": "uint256",
          "name": "",
          "type": "uint256"
        }
      ],
      "stateMutability": "view",
      "type": "function"
    },
    {
      "inputs": [],
      "name": "highestBidder",
      "outputs": [
        {
          "internalType": "address",
          "name": "",
          "type": "address"
        }
      ],
      "stateMutability": "view",
      "type": "function"
    },
    {
      "inputs": [
        {
          "internalType": "address",
          "name": "semaphoreAddress",
          "type": "address"
        },
        {
          "internalType": "address",
          "name": "_verifierAddress",
          "type": "address"
        },
        {
          "internalType": "uint256",
          "name": "_max_bid",
          "type": "uint256"
        }
      ],
      "name": "initialize",
      "outputs": [],
      "stateMutability": "nonpayable",
      "type": "function"
    },
    {
      "inputs": [
        {
          "internalType": "uint256",
          "name": "identityCommitment",
          "type": "uint256"
        }
      ],
      "name": "joinGroup",
      "outputs": [],
      "stateMutability": "nonpayable",
      "type": "function"
    },
    {
      "inputs": [
        {
          "internalType": "uint256[2]",
          "name": "_proof_a",
          "type": "uint256[2]"
        },
        {
          "internalType": "uint256[2][2]",
          "name": "_proof_b",
          "type": "uint256[2][2]"
        },
        {
          "internalType": "uint256[2]",
          "name": "_proof_c",
          "type": "uint256[2]"
        },
        {
          "internalType": "uint256[6]",
          "name": "inputs",
          "type": "uint256[6]"
        }
      ],
      "name": "revealBid",
      "outputs": [],
      "stateMutability": "nonpayable",
      "type": "function"
    },
    {
      "inputs": [],
      "name": "revealWinner",
      "outputs": [],
      "stateMutability": "nonpayable",
      "type": "function"
    },
    {
      "inputs": [
        {
          "internalType": "uint256",
          "name": "",
          "type": "uint256"
        }
      ],
      "name": "revealedBid",
      "outputs": [
        {
          "internalType": "address",
          "name": "bidder",
          "type": "address"
        },
        {
          "internalType": "uint256",
          "name": "bid",
          "type": "uint256"
        }
      ],
      "stateMutability": "view",
      "type": "function"
    },
    {
      "inputs": [],
      "name": "semaphore",
      "outputs": [
        {
          "internalType": "contract ISemaphore",
          "name": "",
          "type": "address"
        }
      ],
      "stateMutability": "view",
      "type": "function"
    },
    {
      "inputs": [],
      "name": "verifierContractAddress",
      "outputs": [
        {
          "internalType": "address",
          "name": "",
          "type": "address"
        }
      ],
      "stateMutability": "view",
      "type": "function"
    }
  ],
  "bytecode": "0x608060405234801561001057600080fd5b50611a4c806100206000396000f3fe608060405234801561001057600080fd5b506004361061010b5760003560e01c806391f90157116100a2578063d57bde7911610071578063d57bde7914610271578063eed02e4b1461028f578063f1d385e8146102ab578063f519ce90146102c7578063f588b157146102f75761010b565b806391f90157146101fb578063a0f44c9214610219578063a5ef7f7c14610237578063b81c78ec146102535761010b565b80636c699905116100de5780636c699905146101975780637b5d2534146101a15780637e12a251146101bf57806380b153f1146101dd5761010b565b80631794bb3c146101105780634423c5f11461012c578063575185ed1461015c57806363c281fa14610166575b600080fd5b61012a60048036038101906101259190610e47565b610315565b005b61014660048036038101906101419190610e9a565b610525565b6040516101539190610ed6565b60405180910390f35b610164610549565b005b610180600480360381019061017b9190610e9a565b6105e2565b60405161018e929190610f00565b60405180910390f35b61019f610636565b005b6101a9610789565b6040516101b69190610f88565b60405180910390f35b6101c76107ad565b6040516101d49190610ed6565b60405180910390f35b6101e56107b7565b6040516101f29190610ed6565b60405180910390f35b6102036107c1565b6040516102109190610fa3565b60405180910390f35b6102216107e7565b60405161022e9190610ed6565b60405180910390f35b610251600480360381019061024c9190611289565b6107ed565b005b61025b610a87565b6040516102689190611401565b60405180910390f35b610279610adf565b6040516102869190610ed6565b60405180910390f35b6102a960048036038101906102a49190610e9a565b610ae5565b005b6102c560048036038101906102c09190611423565b610b77565b005b6102e160048036038101906102dc919061148c565b610d3e565b6040516102ee9190610ed6565b60405180910390f35b6102ff610d56565b60405161030c9190610fa3565b60405180910390f35b600061031f610d7c565b905060008160000160089054906101000a900460ff1615905060008260000160009054906101000a900467ffffffffffffffff1690506000808267ffffffffffffffff1614801561036d5750825b9050600060018367ffffffffffffffff161480156103a2575060003073ffffffffffffffffffffffffffffffffffffffff163b145b9050811580156103b0575080155b156103e7576040517ff92ee8a900000000000000000000000000000000000000000000000000000000815260040160405180910390fd5b60018560000160006101000a81548167ffffffffffffffff021916908367ffffffffffffffff16021790555083156104375760018560000160086101000a81548160ff0219169083151502179055505b876000806101000a81548173ffffffffffffffffffffffffffffffffffffffff021916908373ffffffffffffffffffffffffffffffffffffffff16021790555086600360006101000a81548173ffffffffffffffffffffffffffffffffffffffff021916908373ffffffffffffffffffffffffffffffffffffffff16021790555085600a81905550831561051b5760008560000160086101000a81548160ff0219169083151502179055507fc7f505b2f371ae2175ee4913f4499e1f2633a7b5936321eed1cdaeb6115181d260016040516105129190611508565b60405180910390a15b5050505050505050565b6002818154811061053557600080fd5b906000526020600020016000915090505481565b60008054906101000a900473ffffffffffffffffffffffffffffffffffffffff1673ffffffffffffffffffffffffffffffffffffffff1663575185ed6040518163ffffffff1660e01b81526004016020604051808303816000875af11580156105b6573d6000803e3d6000fd5b505050506040513d601f19601f820116820180604052508101906105da9190611538565b600181905550565b600781815481106105f257600080fd5b90600052602060002090600202016000915090508060000160009054906101000a900473ffffffffffffffffffffffffffffffffffffffff16908060010154905082565b6000600760008154811061064d5761064c611565565b5b9060005260206000209060020201600101549050600080600190505b60078054905081101561072157826007828154811061068b5761068a611565565b5b906000526020600020906002020160010154101561071457600781815481106106b7576106b6611565565b5b9060005260206000209060020201600101549250600781815481106106df576106de611565565b5b906000526020600020906002020160000160009054906101000a900473ffffffffffffffffffffffffffffffffffffffff1691505b8080600101915050610669565b508160098190555080600860006101000a81548173ffffffffffffffffffffffffffffffffffffffff021916908373ffffffffffffffffffffffffffffffffffffffff1602179055506001600860146101000a81548160ff0219169083151502179055505050565b60008054906101000a900473ffffffffffffffffffffffffffffffffffffffff1681565b6000600a54905090565b6000600954905090565b600460009054906101000a900473ffffffffffffffffffffffffffffffffffffffff1681565b60015481565b60006040518060c001604052808a8152602001898152602001888152602001836000600681106108205761081f611565565b5b602002015181526020016001548152602001876008806020026040519081016040528092919082600860200280828437600081840152601f19601f820116905080830192505050505050815250905060008054906101000a900473ffffffffffffffffffffffffffffffffffffffff1673ffffffffffffffffffffffffffffffffffffffff1663d0d898dd600154836040518363ffffffff1660e01b81526004016108cc929190611694565b600060405180830381600087803b1580156108e657600080fd5b505af11580156108fa573d6000803e3d6000fd5b50505050600360009054906101000a900473ffffffffffffffffffffffffffffffffffffffff1673ffffffffffffffffffffffffffffffffffffffff1663f398789b868686866040518563ffffffff1660e01b815260040161095f94939291906118c4565b602060405180830381865afa15801561097c573d6000803e3d6000fd5b505050506040513d601f19601f820116820180604052508101906109a09190611943565b6109df576040517f08c379a00000000000000000000000000000000000000000000000000000000081526004016109d6906119cd565b60405180910390fd5b816000600681106109f3576109f2611565565b5b6020020151600660003373ffffffffffffffffffffffffffffffffffffffff1673ffffffffffffffffffffffffffffffffffffffff16815260200190815260200160002081905550600282600060068110610a5157610a50611565565b5b60200201519080600181540180825580915050600190039060005260206000200160009091909190915055505050505050505050565b60606002805480602002602001604051908101604052809291908181526020018280548015610ad557602002820191906000526020600020905b815481526020019060010190808311610ac1575b5050505050905090565b60055481565b60008054906101000a900473ffffffffffffffffffffffffffffffffffffffff1673ffffffffffffffffffffffffffffffffffffffff16631783efc3600154836040518363ffffffff1660e01b8152600401610b429291906119ed565b600060405180830381600087803b158015610b5c57600080fd5b505af1158015610b70573d6000803e3d6000fd5b5050505050565b600360009054906101000a900473ffffffffffffffffffffffffffffffffffffffff1673ffffffffffffffffffffffffffffffffffffffff1663f398789b858585856040518563ffffffff1660e01b8152600401610bd894939291906118c4565b602060405180830381865afa158015610bf5573d6000803e3d6000fd5b505050506040513d601f19601f82011682018060405250810190610c199190611943565b610c2257600080fd5b6000600660003373ffffffffffffffffffffffffffffffffffffffff1673ffffffffffffffffffffffffffffffffffffffff16815260200190815260200160002054905060008183600060068110610c7d57610c7c611565565b5b602002015103905060008183039050600760405180604001604052803373ffffffffffffffffffffffffffffffffffffffff16815260200183815250908060018154018082558091505060019003906000526020600020906002020160009091909190915060008201518160000160006101000a81548173ffffffffffffffffffffffffffffffffffffffff021916908373ffffffffffffffffffffffffffffffffffffffff16021790555060208201518160010155505050505050505050565b60066020528060005260406000206000915090505481565b600360009054906101000a900473ffffffffffffffffffffffffffffffffffffffff1681565b60007ff0c57e16840df040f15088dc2f81fe391c3923bec73e23a9662efc9c229c6a00905090565b6000604051905090565b600080fd5b600073ffffffffffffffffffffffffffffffffffffffff82169050919050565b6000610dde82610db3565b9050919050565b610dee81610dd3565b8114610df957600080fd5b50565b600081359050610e0b81610de5565b92915050565b6000819050919050565b610e2481610e11565b8114610e2f57600080fd5b50565b600081359050610e4181610e1b565b92915050565b600080600060608486031215610e6057610e5f610dae565b5b6000610e6e86828701610dfc565b9350506020610e7f86828701610dfc565b9250506040610e9086828701610e32565b9150509250925092565b600060208284031215610eb057610eaf610dae565b5b6000610ebe84828501610e32565b91505092915050565b610ed081610e11565b82525050565b6000602082019050610eeb6000830184610ec7565b92915050565b610efa81610dd3565b82525050565b6000604082019050610f156000830185610ef1565b610f226020830184610ec7565b9392505050565b6000819050919050565b6000610f4e610f49610f4484610db3565b610f29565b610db3565b9050919050565b6000610f6082610f33565b9050919050565b6000610f7282610f55565b9050919050565b610f8281610f67565b82525050565b6000602082019050610f9d6000830184610f79565b92915050565b6000602082019050610fb86000830184610ef1565b92915050565b600080fd5b600081905082602060080282011115610fdf57610fde610fbe565b5b92915050565b600080fd5b6000601f19601f8301169050919050565b7f4e487b7100000000000000000000000000000000000000000000000000000000600052604160045260246000fd5b61103382610fea565b810181811067ffffffffffffffff8211171561105257611051610ffb565b5b80604052505050565b6000611065610da4565b9050611071828261102a565b919050565b600067ffffffffffffffff82111561109157611090610ffb565b5b602082029050919050565b60006110af6110aa84611076565b61105b565b905080602084028301858111156110c9576110c8610fbe565b5b835b818110156110f257806110de8882610e32565b8452602084019350506020810190506110cb565b5050509392505050565b600082601f83011261111157611110610fe5565b5b600261111e84828561109c565b91505092915050565b600067ffffffffffffffff82111561114257611141610ffb565b5b602082029050919050565b600061116061115b84611127565b61105b565b9050806040840283018581111561117a57611179610fbe565b5b835b818110156111a3578061118f88826110fc565b84526020840193505060408101905061117c565b5050509392505050565b600082601f8301126111c2576111c1610fe5565b5b60026111cf84828561114d565b91505092915050565b600067ffffffffffffffff8211156111f3576111f2610ffb565b5b602082029050919050565b600061121161120c846111d8565b61105b565b9050806020840283018581111561122b5761122a610fbe565b5b835b8181101561125457806112408882610e32565b84526020840193505060208101905061122d565b5050509392505050565b600082601f83011261127357611272610fe5565b5b60066112808482856111fe565b91505092915050565b600080600080600080600080610320898b0312156112aa576112a9610dae565b5b60006112b88b828c01610e32565b98505060206112c98b828c01610e32565b97505060406112da8b828c01610e32565b96505060606112eb8b828c01610fc3565b9550506101606112fd8b828c016110fc565b9450506101a061130f8b828c016111ad565b9350506102206113218b828c016110fc565b9250506102606113338b828c0161125e565b9150509295985092959890939650565b600081519050919050565b600082825260208201905092915050565b6000819050602082019050919050565b61137881610e11565b82525050565b600061138a838361136f565b60208301905092915050565b6000602082019050919050565b60006113ae82611343565b6113b8818561134e565b93506113c38361135f565b8060005b838110156113f45781516113db888261137e565b97506113e683611396565b9250506001810190506113c7565b5085935050505092915050565b6000602082019050818103600083015261141b81846113a3565b905092915050565b6000806000806101c0858703121561143e5761143d610dae565b5b600061144c878288016110fc565b945050604061145d878288016111ad565b93505060c061146e878288016110fc565b9250506101006114808782880161125e565b91505092959194509250565b6000602082840312156114a2576114a1610dae565b5b60006114b084828501610dfc565b91505092915050565b6000819050919050565b600067ffffffffffffffff82169050919050565b60006114f26114ed6114e8846114b9565b610f29565b6114c3565b9050919050565b611502816114d7565b82525050565b600060208201905061151d60008301846114f9565b92915050565b60008151905061153281610e1b565b92915050565b60006020828403121561154e5761154d610dae565b5b600061155c84828501611523565b91505092915050565b7f4e487b7100000000000000000000000000000000000000000000000000000000600052603260045260246000fd5b600060089050919050565b600081905092915050565b6000819050919050565b6000602082019050919050565b6115ca81611594565b6115d4818461159f565b92506115df826115aa565b8060005b838110156116105781516115f7878261137e565b9650611602836115b4565b9250506001810190506115e3565b505050505050565b6101a08201600082015161162f600085018261136f565b506020820151611642602085018261136f565b506040820151611655604085018261136f565b506060820151611668606085018261136f565b50608082015161167b608085018261136f565b5060a082015161168e60a08501826115c1565b50505050565b60006101c0820190506116aa6000830185610ec7565b6116b76020830184611618565b9392505050565b600060029050919050565b600081905092915050565b6000819050919050565b6000602082019050919050565b6116f4816116be565b6116fe81846116c9565b9250611709826116d4565b8060005b8381101561173a578151611721878261137e565b965061172c836116de565b92505060018101905061170d565b505050505050565b600060029050919050565b600081905092915050565b6000819050919050565b600081905092915050565b611776816116be565b6117808184611762565b925061178b826116d4565b8060005b838110156117bc5781516117a3878261137e565b96506117ae836116de565b92505060018101905061178f565b505050505050565b60006117d0838361176d565b60408301905092915050565b6000602082019050919050565b6117f281611742565b6117fc818461174d565b925061180782611758565b8060005b8381101561183857815161181f87826117c4565b965061182a836117dc565b92505060018101905061180b565b505050505050565b600060069050919050565b600081905092915050565b6000819050919050565b6000602082019050919050565b61187681611840565b611880818461184b565b925061188b82611856565b8060005b838110156118bc5781516118a3878261137e565b96506118ae83611860565b92505060018101905061188f565b505050505050565b60006101c0820190506118da60008301876116eb565b6118e760408301866117e9565b6118f460c08301856116eb565b61190261010083018461186d565b95945050505050565b60008115159050919050565b6119208161190b565b811461192b57600080fd5b50565b60008151905061193d81611917565b92915050565b60006020828403121561195957611958610dae565b5b60006119678482850161192e565b91505092915050565b600082825260208201905092915050565b7f50726f6f66206661696c65640000000000000000000000000000000000000000600082015250565b60006119b7600c83611970565b91506119c282611981565b602082019050919050565b600060208201905081810360008301526119e6816119aa565b9050919050565b6000604082019050611a026000830185610ec7565b611a0f6020830184610ec7565b939250505056fea2646970667358221220f574f9794e2c02822d0f4d98ce4f7b2df8876ba0ecdb1913c9adba07226b851c64736f6c63430008170033",
  "linkReferences": {},
  "deployedLinkReferences": {}
}