{
  "_format": "hh-sol-artifact-1",
  "contractName": "BlindAuction",
  "sourceName": "contracts/BlindAuction.sol",
  "abi": [
    {
      "inputs": [],
      "name": "InvalidInitialization",
      "type": "error"
    },
    {
      "inputs": [],
      "name": "NotInitializing",
      "type": "error"
    },
    {
      "anonymous": false,
      "inputs": [
        {
          "indexed": false,
          "internalType": "uint64",
          "name": "version",
          "type": "uint64"
        }
      ],
      "name": "Initialized",
      "type": "event"
    },
    {
      "inputs": [
        {
          "internalType": "uint256",
          "name": "merkleTreeDepth",
          "type": "uint256"
        },
        {
          "internalType": "uint256",
          "name": "merkleTreeRoot",
          "type": "uint256"
        },
        {
          "internalType": "uint256",
          "name": "nullifier",
          "type": "uint256"
        },
        {
          "internalType": "uint256[8]",
          "name": "points",
          "type": "uint256[8]"
        },
        {
          "internalType": "uint256[2]",
          "name": "_proof_a",
          "type": "uint256[2]"
        },
        {
          "internalType": "uint256[2][2]",
          "name": "_proof_b",
          "type": "uint256[2][2]"
        },
        {
          "internalType": "uint256[2]",
          "name": "_proof_c",
          "type": "uint256[2]"
        },
        {
          "internalType": "uint256[6]",
          "name": "inputs",
          "type": "uint256[6]"
        }
      ],
      "name": "bid",
      "outputs": [],
      "stateMutability": "nonpayable",
      "type": "function"
    },
    {
      "inputs": [],
      "name": "bidWinner",
      "outputs": [
        {
          "internalType": "uint256",
          "name": "",
          "type": "uint256"
        }
      ],
      "stateMutability": "view",
      "type": "function"
    },
    {
      "inputs": [
        {
          "internalType": "uint256",
          "name": "",
          "type": "uint256"
        }
      ],
      "name": "bids",
      "outputs": [
        {
          "internalType": "uint256",
          "name": "",
          "type": "uint256"
        }
      ],
      "stateMutability": "view",
      "type": "function"
    },
    {
      "inputs": [],
      "name": "createGroup",
      "outputs": [],
      "stateMutability": "nonpayable",
      "type": "function"
    },
    {
      "inputs": [],
      "name": "getBids",
      "outputs": [
        {
          "internalType": "uint256[]",
          "name": "",
          "type": "uint256[]"
        }
      ],
      "stateMutability": "view",
      "type": "function"
    },
    {
      "inputs": [],
      "name": "getMaxBid",
      "outputs": [
        {
          "internalType": "uint256",
          "name": "",
          "type": "uint256"
        }
      ],
      "stateMutability": "view",
      "type": "function"
    },
    {
      "inputs": [],
      "name": "getWinner",
      "outputs": [
        {
          "internalType": "address",
          "name": "",
          "type": "address"
        }
      ],
      "stateMutability": "view",
      "type": "function"
    },
    {
      "inputs": [],
      "name": "groupId",
      "outputs": [
        {
          "internalType": "uint256",
          "name": "",
          "type": "uint256"
        }
      ],
      "stateMutability": "view",
      "type": "function"
    },
    {
      "inputs": [
        {
          "internalType": "address",
          "name": "",
          "type": "address"
        }
      ],
      "name": "hashedBidsToBidders",
      "outputs": [
        {
          "internalType": "uint256",
          "name": "",
          "type": "uint256"
        }
      ],
      "stateMutability": "view",
      "type": "function"
    },
    {
      "inputs": [],
      "name": "highestBid",
      "outputs": [
        {
          "internalType": "uint256",
          "name": "",
          "type": "uint256"
        }
      ],
      "stateMutability": "view",
      "type": "function"
    },
    {
      "inputs": [],
      "name": "highestBidder",
      "outputs": [
        {
          "internalType": "address",
          "name": "",
          "type": "address"
        }
      ],
      "stateMutability": "view",
      "type": "function"
    },
    {
      "inputs": [
        {
          "internalType": "address",
          "name": "semaphoreAddress",
          "type": "address"
        },
        {
          "internalType": "address",
          "name": "_verifierAddress",
          "type": "address"
        },
        {
          "internalType": "uint256",
          "name": "_max_bid",
          "type": "uint256"
        }
      ],
      "name": "initialize",
      "outputs": [],
      "stateMutability": "nonpayable",
      "type": "function"
    },
    {
      "inputs": [
        {
          "internalType": "uint256",
          "name": "identityCommitment",
          "type": "uint256"
        }
      ],
      "name": "joinGroup",
      "outputs": [],
      "stateMutability": "nonpayable",
      "type": "function"
    },
    {
      "inputs": [
        {
          "internalType": "uint256[2]",
          "name": "_proof_a",
          "type": "uint256[2]"
        },
        {
          "internalType": "uint256[2][2]",
          "name": "_proof_b",
          "type": "uint256[2][2]"
        },
        {
          "internalType": "uint256[2]",
          "name": "_proof_c",
          "type": "uint256[2]"
        },
        {
          "internalType": "uint256[6]",
          "name": "inputs",
          "type": "uint256[6]"
        }
      ],
      "name": "revealBid",
      "outputs": [],
      "stateMutability": "nonpayable",
      "type": "function"
    },
    {
      "inputs": [],
      "name": "revealWinner",
      "outputs": [],
      "stateMutability": "nonpayable",
      "type": "function"
    },
    {
      "inputs": [
        {
          "internalType": "uint256",
          "name": "",
          "type": "uint256"
        }
      ],
      "name": "revealedBid",
      "outputs": [
        {
          "internalType": "address",
          "name": "bidder",
          "type": "address"
        },
        {
          "internalType": "uint256",
          "name": "bid",
          "type": "uint256"
        }
      ],
      "stateMutability": "view",
      "type": "function"
    },
    {
      "inputs": [],
      "name": "semaphore",
      "outputs": [
        {
          "internalType": "contract ISemaphore",
          "name": "",
          "type": "address"
        }
      ],
      "stateMutability": "view",
      "type": "function"
    },
    {
      "inputs": [],
      "name": "verifierContractAddress",
      "outputs": [
        {
          "internalType": "address",
          "name": "",
          "type": "address"
        }
      ],
      "stateMutability": "view",
      "type": "function"
    }
  ],
  "bytecode": "0x608060405234801561001057600080fd5b50611a9f806100206000396000f3fe608060405234801561001057600080fd5b50600436106101165760003560e01c806391f90157116100a2578063d57bde7911610071578063d57bde791461029a578063eed02e4b146102b8578063f1d385e8146102d4578063f519ce90146102f0578063f588b1571461032057610116565b806391f9015714610224578063a0f44c9214610242578063a5ef7f7c14610260578063b81c78ec1461027c57610116565b80636c699905116100e95780636c699905146101a25780637b5d2534146101ac5780637e12a251146101ca57806380b153f1146101e85780638e7ea5b21461020657610116565b80631794bb3c1461011b5780634423c5f114610137578063575185ed1461016757806363c281fa14610171575b600080fd5b61013560048036038101906101309190610e9a565b61033e565b005b610151600480360381019061014c9190610eed565b61054e565b60405161015e9190610f29565b60405180910390f35b61016f610572565b005b61018b60048036038101906101869190610eed565b61060b565b604051610199929190610f53565b60405180910390f35b6101aa61065f565b005b6101b46107b2565b6040516101c19190610fdb565b60405180910390f35b6101d26107d6565b6040516101df9190610f29565b60405180910390f35b6101f06107e0565b6040516101fd9190610f29565b60405180910390f35b61020e6107ea565b60405161021b9190610ff6565b60405180910390f35b61022c610814565b6040516102399190610ff6565b60405180910390f35b61024a61083a565b6040516102579190610f29565b60405180910390f35b61027a600480360381019061027591906112dc565b610840565b005b610284610ada565b6040516102919190611454565b60405180910390f35b6102a2610b32565b6040516102af9190610f29565b60405180910390f35b6102d260048036038101906102cd9190610eed565b610b38565b005b6102ee60048036038101906102e99190611476565b610bca565b005b61030a600480360381019061030591906114df565b610d91565b6040516103179190610f29565b60405180910390f35b610328610da9565b6040516103359190610ff6565b60405180910390f35b6000610348610dcf565b905060008160000160089054906101000a900460ff1615905060008260000160009054906101000a900467ffffffffffffffff1690506000808267ffffffffffffffff161480156103965750825b9050600060018367ffffffffffffffff161480156103cb575060003073ffffffffffffffffffffffffffffffffffffffff163b145b9050811580156103d9575080155b15610410576040517ff92ee8a900000000000000000000000000000000000000000000000000000000815260040160405180910390fd5b60018560000160006101000a81548167ffffffffffffffff021916908367ffffffffffffffff16021790555083156104605760018560000160086101000a81548160ff0219169083151502179055505b876000806101000a81548173ffffffffffffffffffffffffffffffffffffffff021916908373ffffffffffffffffffffffffffffffffffffffff16021790555086600360006101000a81548173ffffffffffffffffffffffffffffffffffffffff021916908373ffffffffffffffffffffffffffffffffffffffff16021790555085600a8190555083156105445760008560000160086101000a81548160ff0219169083151502179055507fc7f505b2f371ae2175ee4913f4499e1f2633a7b5936321eed1cdaeb6115181d2600160405161053b919061155b565b60405180910390a15b5050505050505050565b6002818154811061055e57600080fd5b906000526020600020016000915090505481565b60008054906101000a900473ffffffffffffffffffffffffffffffffffffffff1673ffffffffffffffffffffffffffffffffffffffff1663575185ed6040518163ffffffff1660e01b81526004016020604051808303816000875af11580156105df573d6000803e3d6000fd5b505050506040513d601f19601f82011682018060405250810190610603919061158b565b600181905550565b6007818154811061061b57600080fd5b90600052602060002090600202016000915090508060000160009054906101000a900473ffffffffffffffffffffffffffffffffffffffff16908060010154905082565b60006007600081548110610676576106756115b8565b5b9060005260206000209060020201600101549050600080600190505b60078054905081101561074a5782600782815481106106b4576106b36115b8565b5b906000526020600020906002020160010154101561073d57600781815481106106e0576106df6115b8565b5b906000526020600020906002020160010154925060078181548110610708576107076115b8565b5b906000526020600020906002020160000160009054906101000a900473ffffffffffffffffffffffffffffffffffffffff1691505b8080600101915050610692565b508160098190555080600860006101000a81548173ffffffffffffffffffffffffffffffffffffffff021916908373ffffffffffffffffffffffffffffffffffffffff1602179055506001600860146101000a81548160ff0219169083151502179055505050565b60008054906101000a900473ffffffffffffffffffffffffffffffffffffffff1681565b6000600a54905090565b6000600954905090565b6000600860009054906101000a900473ffffffffffffffffffffffffffffffffffffffff16905090565b600460009054906101000a900473ffffffffffffffffffffffffffffffffffffffff1681565b60015481565b60006040518060c001604052808a815260200189815260200188815260200183600060068110610873576108726115b8565b5b602002015181526020016001548152602001876008806020026040519081016040528092919082600860200280828437600081840152601f19601f820116905080830192505050505050815250905060008054906101000a900473ffffffffffffffffffffffffffffffffffffffff1673ffffffffffffffffffffffffffffffffffffffff1663d0d898dd600154836040518363ffffffff1660e01b815260040161091f9291906116e7565b600060405180830381600087803b15801561093957600080fd5b505af115801561094d573d6000803e3d6000fd5b50505050600360009054906101000a900473ffffffffffffffffffffffffffffffffffffffff1673ffffffffffffffffffffffffffffffffffffffff1663f398789b868686866040518563ffffffff1660e01b81526004016109b29493929190611917565b602060405180830381865afa1580156109cf573d6000803e3d6000fd5b505050506040513d601f19601f820116820180604052508101906109f39190611996565b610a32576040517f08c379a0000000000000000000000000000000000000000000000000000000008152600401610a2990611a20565b60405180910390fd5b81600060068110610a4657610a456115b8565b5b6020020151600660003373ffffffffffffffffffffffffffffffffffffffff1673ffffffffffffffffffffffffffffffffffffffff16815260200190815260200160002081905550600282600060068110610aa457610aa36115b8565b5b60200201519080600181540180825580915050600190039060005260206000200160009091909190915055505050505050505050565b60606002805480602002602001604051908101604052809291908181526020018280548015610b2857602002820191906000526020600020905b815481526020019060010190808311610b14575b5050505050905090565b60055481565b60008054906101000a900473ffffffffffffffffffffffffffffffffffffffff1673ffffffffffffffffffffffffffffffffffffffff16631783efc3600154836040518363ffffffff1660e01b8152600401610b95929190611a40565b600060405180830381600087803b158015610baf57600080fd5b505af1158015610bc3573d6000803e3d6000fd5b5050505050565b600360009054906101000a900473ffffffffffffffffffffffffffffffffffffffff1673ffffffffffffffffffffffffffffffffffffffff1663f398789b858585856040518563ffffffff1660e01b8152600401610c2b9493929190611917565b602060405180830381865afa158015610c48573d6000803e3d6000fd5b505050506040513d601f19601f82011682018060405250810190610c6c9190611996565b610c7557600080fd5b6000600660003373ffffffffffffffffffffffffffffffffffffffff1673ffffffffffffffffffffffffffffffffffffffff16815260200190815260200160002054905060008183600060068110610cd057610ccf6115b8565b5b602002015103905060008183039050600760405180604001604052803373ffffffffffffffffffffffffffffffffffffffff16815260200183815250908060018154018082558091505060019003906000526020600020906002020160009091909190915060008201518160000160006101000a81548173ffffffffffffffffffffffffffffffffffffffff021916908373ffffffffffffffffffffffffffffffffffffffff16021790555060208201518160010155505050505050505050565b60066020528060005260406000206000915090505481565b600360009054906101000a900473ffffffffffffffffffffffffffffffffffffffff1681565b60007ff0c57e16840df040f15088dc2f81fe391c3923bec73e23a9662efc9c229c6a00905090565b6000604051905090565b600080fd5b600073ffffffffffffffffffffffffffffffffffffffff82169050919050565b6000610e3182610e06565b9050919050565b610e4181610e26565b8114610e4c57600080fd5b50565b600081359050610e5e81610e38565b92915050565b6000819050919050565b610e7781610e64565b8114610e8257600080fd5b50565b600081359050610e9481610e6e565b92915050565b600080600060608486031215610eb357610eb2610e01565b5b6000610ec186828701610e4f565b9350506020610ed286828701610e4f565b9250506040610ee386828701610e85565b9150509250925092565b600060208284031215610f0357610f02610e01565b5b6000610f1184828501610e85565b91505092915050565b610f2381610e64565b82525050565b6000602082019050610f3e6000830184610f1a565b92915050565b610f4d81610e26565b82525050565b6000604082019050610f686000830185610f44565b610f756020830184610f1a565b9392505050565b6000819050919050565b6000610fa1610f9c610f9784610e06565b610f7c565b610e06565b9050919050565b6000610fb382610f86565b9050919050565b6000610fc582610fa8565b9050919050565b610fd581610fba565b82525050565b6000602082019050610ff06000830184610fcc565b92915050565b600060208201905061100b6000830184610f44565b92915050565b600080fd5b60008190508260206008028201111561103257611031611011565b5b92915050565b600080fd5b6000601f19601f8301169050919050565b7f4e487b7100000000000000000000000000000000000000000000000000000000600052604160045260246000fd5b6110868261103d565b810181811067ffffffffffffffff821117156110a5576110a461104e565b5b80604052505050565b60006110b8610df7565b90506110c4828261107d565b919050565b600067ffffffffffffffff8211156110e4576110e361104e565b5b602082029050919050565b60006111026110fd846110c9565b6110ae565b9050806020840283018581111561111c5761111b611011565b5b835b8181101561114557806111318882610e85565b84526020840193505060208101905061111e565b5050509392505050565b600082601f83011261116457611163611038565b5b60026111718482856110ef565b91505092915050565b600067ffffffffffffffff8211156111955761119461104e565b5b602082029050919050565b60006111b36111ae8461117a565b6110ae565b905080604084028301858111156111cd576111cc611011565b5b835b818110156111f657806111e2888261114f565b8452602084019350506040810190506111cf565b5050509392505050565b600082601f83011261121557611214611038565b5b60026112228482856111a0565b91505092915050565b600067ffffffffffffffff8211156112465761124561104e565b5b602082029050919050565b600061126461125f8461122b565b6110ae565b9050806020840283018581111561127e5761127d611011565b5b835b818110156112a757806112938882610e85565b845260208401935050602081019050611280565b5050509392505050565b600082601f8301126112c6576112c5611038565b5b60066112d3848285611251565b91505092915050565b600080600080600080600080610320898b0312156112fd576112fc610e01565b5b600061130b8b828c01610e85565b985050602061131c8b828c01610e85565b975050604061132d8b828c01610e85565b965050606061133e8b828c01611016565b9550506101606113508b828c0161114f565b9450506101a06113628b828c01611200565b9350506102206113748b828c0161114f565b9250506102606113868b828c016112b1565b9150509295985092959890939650565b600081519050919050565b600082825260208201905092915050565b6000819050602082019050919050565b6113cb81610e64565b82525050565b60006113dd83836113c2565b60208301905092915050565b6000602082019050919050565b600061140182611396565b61140b81856113a1565b9350611416836113b2565b8060005b8381101561144757815161142e88826113d1565b9750611439836113e9565b92505060018101905061141a565b5085935050505092915050565b6000602082019050818103600083015261146e81846113f6565b905092915050565b6000806000806101c0858703121561149157611490610e01565b5b600061149f8782880161114f565b94505060406114b087828801611200565b93505060c06114c18782880161114f565b9250506101006114d3878288016112b1565b91505092959194509250565b6000602082840312156114f5576114f4610e01565b5b600061150384828501610e4f565b91505092915050565b6000819050919050565b600067ffffffffffffffff82169050919050565b600061154561154061153b8461150c565b610f7c565b611516565b9050919050565b6115558161152a565b82525050565b6000602082019050611570600083018461154c565b92915050565b60008151905061158581610e6e565b92915050565b6000602082840312156115a1576115a0610e01565b5b60006115af84828501611576565b91505092915050565b7f4e487b7100000000000000000000000000000000000000000000000000000000600052603260045260246000fd5b600060089050919050565b600081905092915050565b6000819050919050565b6000602082019050919050565b61161d816115e7565b61162781846115f2565b9250611632826115fd565b8060005b8381101561166357815161164a87826113d1565b965061165583611607565b925050600181019050611636565b505050505050565b6101a08201600082015161168260008501826113c2565b50602082015161169560208501826113c2565b5060408201516116a860408501826113c2565b5060608201516116bb60608501826113c2565b5060808201516116ce60808501826113c2565b5060a08201516116e160a0850182611614565b50505050565b60006101c0820190506116fd6000830185610f1a565b61170a602083018461166b565b9392505050565b600060029050919050565b600081905092915050565b6000819050919050565b6000602082019050919050565b61174781611711565b611751818461171c565b925061175c82611727565b8060005b8381101561178d57815161177487826113d1565b965061177f83611731565b925050600181019050611760565b505050505050565b600060029050919050565b600081905092915050565b6000819050919050565b600081905092915050565b6117c981611711565b6117d381846117b5565b92506117de82611727565b8060005b8381101561180f5781516117f687826113d1565b965061180183611731565b9250506001810190506117e2565b505050505050565b600061182383836117c0565b60408301905092915050565b6000602082019050919050565b61184581611795565b61184f81846117a0565b925061185a826117ab565b8060005b8381101561188b5781516118728782611817565b965061187d8361182f565b92505060018101905061185e565b505050505050565b600060069050919050565b600081905092915050565b6000819050919050565b6000602082019050919050565b6118c981611893565b6118d3818461189e565b92506118de826118a9565b8060005b8381101561190f5781516118f687826113d1565b9650611901836118b3565b9250506001810190506118e2565b505050505050565b60006101c08201905061192d600083018761173e565b61193a604083018661183c565b61194760c083018561173e565b6119556101008301846118c0565b95945050505050565b60008115159050919050565b6119738161195e565b811461197e57600080fd5b50565b6000815190506119908161196a565b92915050565b6000602082840312156119ac576119ab610e01565b5b60006119ba84828501611981565b91505092915050565b600082825260208201905092915050565b7f50726f6f66206661696c65640000000000000000000000000000000000000000600082015250565b6000611a0a600c836119c3565b9150611a15826119d4565b602082019050919050565b60006020820190508181036000830152611a39816119fd565b9050919050565b6000604082019050611a556000830185610f1a565b611a626020830184610f1a565b939250505056fea2646970667358221220b2b760d4c39175230dc7bf7894773aa13054454a285d294f37bd4498b560d8b864736f6c63430008170033",
  "linkReferences": {},
  "deployedLinkReferences": {}
}