{
  "_format": "hh-sol-artifact-1",
  "contractName": "BlindAuctionFactory",
  "sourceName": "contracts/BlindAuctionFactory.sol",
  "abi": [
    {
      "inputs": [
        {
          "internalType": "address",
          "name": "_implementation",
          "type": "address"
        },
        {
          "internalType": "address",
          "name": "_verifier",
          "type": "address"
        },
        {
          "internalType": "address",
          "name": "semaphoreAddress",
          "type": "address"
        }
      ],
      "stateMutability": "nonpayable",
      "type": "constructor"
    },
    {
      "inputs": [],
      "name": "ERC1167FailedCreateClone",
      "type": "error"
    },
    {
      "anonymous": false,
      "inputs": [
        {
          "indexed": false,
          "internalType": "address",
          "name": "blindAuctionContract",
          "type": "address"
        },
        {
          "indexed": false,
          "internalType": "uint256",
          "name": "numAuctions",
          "type": "uint256"
        },
        {
          "indexed": false,
          "internalType": "address[]",
          "name": "blindAuctionProxies",
          "type": "address[]"
        }
      ],
      "name": "BlindAuctionCloneCreated",
      "type": "event"
    },
    {
      "inputs": [
        {
          "internalType": "uint256",
          "name": "",
          "type": "uint256"
        }
      ],
      "name": "blindAuctionProxies",
      "outputs": [
        {
          "internalType": "address",
          "name": "",
          "type": "address"
        }
      ],
      "stateMutability": "view",
      "type": "function"
    },
    {
      "inputs": [
        {
          "internalType": "uint256",
          "name": "maxBid",
          "type": "uint256"
        }
      ],
      "name": "createBlindAuctionProxy",
      "outputs": [
        {
          "internalType": "address",
          "name": "blindAuctionProxyContract",
          "type": "address"
        }
      ],
      "stateMutability": "payable",
      "type": "function"
    },
    {
      "inputs": [],
      "name": "createGroup",
      "outputs": [],
      "stateMutability": "nonpayable",
      "type": "function"
    },
    {
      "inputs": [],
      "name": "getAllAuctions",
      "outputs": [
        {
          "internalType": "address[]",
          "name": "",
          "type": "address[]"
        }
      ],
      "stateMutability": "view",
      "type": "function"
    },
    {
      "inputs": [
        {
          "internalType": "uint8",
          "name": "id",
          "type": "uint8"
        }
      ],
      "name": "getAuctionById",
      "outputs": [
        {
          "internalType": "address",
          "name": "",
          "type": "address"
        }
      ],
      "stateMutability": "view",
      "type": "function"
    },
    {
      "inputs": [],
      "name": "implementation",
      "outputs": [
        {
          "internalType": "address",
          "name": "",
          "type": "address"
        }
      ],
      "stateMutability": "view",
      "type": "function"
    },
    {
      "inputs": [],
      "name": "semaphore",
      "outputs": [
        {
          "internalType": "contract ISemaphore",
          "name": "",
          "type": "address"
        }
      ],
      "stateMutability": "view",
      "type": "function"
    },
    {
      "inputs": [],
      "name": "verifierContract",
      "outputs": [
        {
          "internalType": "address",
          "name": "",
          "type": "address"
        }
      ],
      "stateMutability": "view",
      "type": "function"
    }
  ],
  "bytecode": "0x608060405234801561001057600080fd5b50604051610ca6380380610ca68339818101604052810190610032919061015f565b80600460006101000a81548173ffffffffffffffffffffffffffffffffffffffff021916908373ffffffffffffffffffffffffffffffffffffffff160217905550826000806101000a81548173ffffffffffffffffffffffffffffffffffffffff021916908373ffffffffffffffffffffffffffffffffffffffff16021790555081600160006101000a81548173ffffffffffffffffffffffffffffffffffffffff021916908373ffffffffffffffffffffffffffffffffffffffff1602179055505050506101b2565b600080fd5b600073ffffffffffffffffffffffffffffffffffffffff82169050919050565b600061012c82610101565b9050919050565b61013c81610121565b811461014757600080fd5b50565b60008151905061015981610133565b92915050565b600080600060608486031215610178576101776100fc565b5b60006101868682870161014a565b93505060206101978682870161014a565b92505060406101a88682870161014a565b9150509250925092565b610ae5806101c16000396000f3fe60806040526004361061007b5760003560e01c80638da8ec6d1161004e5780638da8ec6d1461012a578063cbd2bdfd1461015a578063cf69568814610185578063fd2ba8bf146101b05761007b565b80630221db6114610080578063575185ed146100bd5780635c60da1b146100d45780637b5d2534146100ff575b600080fd5b34801561008c57600080fd5b506100a760048036038101906100a29190610688565b6101ed565b6040516100b491906106f6565b60405180910390f35b3480156100c957600080fd5b506100d2610238565b005b3480156100e057600080fd5b506100e96102d3565b6040516100f691906106f6565b60405180910390f35b34801561010b57600080fd5b506101146102f7565b6040516101219190610770565b60405180910390f35b610144600480360381019061013f91906107c1565b61031d565b60405161015191906106f6565b60405180910390f35b34801561016657600080fd5b5061016f6104a6565b60405161017c91906108ac565b60405180910390f35b34801561019157600080fd5b5061019a610534565b6040516101a791906106f6565b60405180910390f35b3480156101bc57600080fd5b506101d760048036038101906101d291906107c1565b61055a565b6040516101e491906106f6565b60405180910390f35b600060028260ff1681548110610206576102056108ce565b5b9060005260206000200160009054906101000a900473ffffffffffffffffffffffffffffffffffffffff169050919050565b600460009054906101000a900473ffffffffffffffffffffffffffffffffffffffff1673ffffffffffffffffffffffffffffffffffffffff1663575185ed6040518163ffffffff1660e01b81526004016020604051808303816000875af11580156102a7573d6000803e3d6000fd5b505050506040513d601f19601f820116820180604052508101906102cb9190610912565b600381905550565b60008054906101000a900473ffffffffffffffffffffffffffffffffffffffff1681565b600460009054906101000a900473ffffffffffffffffffffffffffffffffffffffff1681565b600061034860008054906101000a900473ffffffffffffffffffffffffffffffffffffffff16610599565b90508073ffffffffffffffffffffffffffffffffffffffff16631794bb3c600460009054906101000a900473ffffffffffffffffffffffffffffffffffffffff16600160009054906101000a900473ffffffffffffffffffffffffffffffffffffffff16856040518463ffffffff1660e01b81526004016103cb9392919061094e565b600060405180830381600087803b1580156103e557600080fd5b505af11580156103f9573d6000803e3d6000fd5b505050506002819080600181540180825580915050600190039060005260206000200160009091909190916101000a81548173ffffffffffffffffffffffffffffffffffffffff021916908373ffffffffffffffffffffffffffffffffffffffff1602179055507fc1140dc458f31caf49282de904282de691313fb420c19af1eadac20a453620aa81600280549050600260405161049993929190610a71565b60405180910390a1919050565b6060600280548060200260200160405190810160405280929190818152602001828054801561052a57602002820191906000526020600020905b8160009054906101000a900473ffffffffffffffffffffffffffffffffffffffff1673ffffffffffffffffffffffffffffffffffffffff16815260200190600101908083116104e0575b5050505050905090565b600160009054906101000a900473ffffffffffffffffffffffffffffffffffffffff1681565b6002818154811061056a57600080fd5b906000526020600020016000915054906101000a900473ffffffffffffffffffffffffffffffffffffffff1681565b6000763d602d80600a3d3981f3363d3d373d3d3d363d730000008260601b60e81c176000526e5af43d82803e903d91602b57fd5bf38260781b17602052603760096000f09050600073ffffffffffffffffffffffffffffffffffffffff168173ffffffffffffffffffffffffffffffffffffffff1603610645576040517fc2f868f400000000000000000000000000000000000000000000000000000000815260040160405180910390fd5b919050565b600080fd5b600060ff82169050919050565b6106658161064f565b811461067057600080fd5b50565b6000813590506106828161065c565b92915050565b60006020828403121561069e5761069d61064a565b5b60006106ac84828501610673565b91505092915050565b600073ffffffffffffffffffffffffffffffffffffffff82169050919050565b60006106e0826106b5565b9050919050565b6106f0816106d5565b82525050565b600060208201905061070b60008301846106e7565b92915050565b6000819050919050565b600061073661073161072c846106b5565b610711565b6106b5565b9050919050565b60006107488261071b565b9050919050565b600061075a8261073d565b9050919050565b61076a8161074f565b82525050565b60006020820190506107856000830184610761565b92915050565b6000819050919050565b61079e8161078b565b81146107a957600080fd5b50565b6000813590506107bb81610795565b92915050565b6000602082840312156107d7576107d661064a565b5b60006107e5848285016107ac565b91505092915050565b600081519050919050565b600082825260208201905092915050565b6000819050602082019050919050565b610823816106d5565b82525050565b6000610835838361081a565b60208301905092915050565b6000602082019050919050565b6000610859826107ee565b61086381856107f9565b935061086e8361080a565b8060005b8381101561089f5781516108868882610829565b975061089183610841565b925050600181019050610872565b5085935050505092915050565b600060208201905081810360008301526108c6818461084e565b905092915050565b7f4e487b7100000000000000000000000000000000000000000000000000000000600052603260045260246000fd5b60008151905061090c81610795565b92915050565b6000602082840312156109285761092761064a565b5b6000610936848285016108fd565b91505092915050565b6109488161078b565b82525050565b600060608201905061096360008301866106e7565b61097060208301856106e7565b61097d604083018461093f565b949350505050565b600081549050919050565b60008190508160005260206000209050919050565b60008160001c9050919050565b600073ffffffffffffffffffffffffffffffffffffffff82169050919050565b60006109e56109e0836109a5565b6109b2565b9050919050565b60006109f882546109d2565b9050919050565b6000600182019050919050565b6000610a1782610985565b610a2181856107f9565b9350610a2c83610990565b8060005b83811015610a6457610a41826109ec565b610a4b8882610829565b9750610a56836109ff565b925050600181019050610a30565b5085935050505092915050565b6000606082019050610a8660008301866106e7565b610a93602083018561093f565b8181036040830152610aa58184610a0c565b905094935050505056fea2646970667358221220a4ad6554ffc048b7ddc7e2c8721730e418f2fd5273b01267328f5bcc737a330364736f6c63430008170033",
  "linkReferences": {},
  "deployedLinkReferences": {}
}