{
  "_format": "hh-sol-artifact-1",
  "contractName": "Groth16Verifier",
  "sourceName": "contracts/ZkGovAuctionVerifier.sol",
  "abi": [
    {
      "inputs": [
        {
          "internalType": "uint256[2]",
          "name": "_pA",
          "type": "uint256[2]"
        },
        {
          "internalType": "uint256[2][2]",
          "name": "_pB",
          "type": "uint256[2][2]"
        },
        {
          "internalType": "uint256[2]",
          "name": "_pC",
          "type": "uint256[2]"
        },
        {
          "internalType": "uint256[6]",
          "name": "_pubSignals",
          "type": "uint256[6]"
        }
      ],
      "name": "verifyProof",
      "outputs": [
        {
          "internalType": "bool",
          "name": "",
          "type": "bool"
        }
      ],
      "stateMutability": "view",
      "type": "function"
    }
  ],
  "bytecode": "0x608060405234801561001057600080fd5b506107df806100206000396000f3fe608060405234801561001057600080fd5b506004361061002b5760003560e01c8063f398789b14610030575b600080fd5b61004a6004803603810190610045919061070a565b610060565b604051610057919061078e565b60405180910390f35b600061061d565b7f30644e72e131a029b85045b68181585d2833e84879b9709143e1f593f00000018110610098576000805260206000f35b50565b600060405183815284602082015285604082015260408160608360076107d05a03fa9150816100ce576000805260206000f35b825160408201526020830151606082015260408360808360066107d05a03fa9150816100fe576000805260206000f35b505050505050565b600060808601600087017f1661828d7996c8865de8d6b691d2fc361d856ccd0bfcd623885b82253fce724d81527f170895b7d933e00b3795aa90f7a7f5f59508556466b4b98b177c417fc90f5c9460208201526101a960008801357f031f720e45afbf948cc212ea5323183ed63f9477c38a6c5048ec50487b987c197f07f94270019640ab58f4df9413df5be5ee75d1a6e0e33f0352f2bfb4b65e53958461009b565b6101f960208801357f147a0580d8d3e99bf721fa0686bbb8ba10b81e9093e39052958f0094340296437f0c6b288331d726c22a3704866ff658604fe1eac5ea122581c9bb8826a6291af38461009b565b61024960408801357f24c2e1523180f303f620b27c521bc087d6b0cfc9699ee7e848d30419ba460aec7f0d085eb978354587744847a8b0dfbd04b8557f129148edccd643e7191912817e8461009b565b61029960608801357f2d001266a06aa0993b736d486f436da10cc294c80bc24b29d1dfd0b5d6b366887f0d6fe5b60823775a55a5fede2791742a4dedbbd218c646fe9d349a6960dda7b68461009b565b6102e960808801357f2a2037d1e85c31eea05c2023d19e96ff5cbe24962f3e40d4e71884a2ed3317ac7f01c0ee46be1e72237326af01f3b7d7bb8fe6dca7ef1e183e3d2a3760cbd1ee398461009b565b61033960a08801357f215dd1f795d82627523bebc5a2949df8fdfcad08cd43e56198730b8ebdb6f8747f24de3a4dd5a448482efcfebc38edffc88cb09304c154d5db0500ada2165ce1508461009b565b833582527f30644e72e131a029b85045b68181585d97816a916871ca8d3c208c16d87cfd4760208501357f30644e72e131a029b85045b68181585d97816a916871ca8d3c208c16d87cfd4703066020830152843560408301526020850135606083015260408501356080830152606085013560a08301527f2d4d9aa7e302d9df41749d5507949d05dbea33fbb16c643b22f599a2be6df2e260c08301527f14bedd503c37ceb061d8ec60209fe345ce89830a19230301f076caff004d192660e08301527f0967032fcbf776d1afc985f88877f182d38480a653f2decaa9794cbc3bf3060c6101008301527f0e187847ad4c798374d0d6732bf501847dd68bc0e071241e0213bc7fc13db7ab6101208301527f304cfbd1e08a704a99f5e847d93f8c3caafddec46b7a0d379da69a4d112346a76101408301527f1739c1b1a457a8c7313123d24d2f9192f896b7c63eea05a9d57f06547ad0cec8610160830152600088015161018083015260206000018801516101a08301527f198e9393920d483a7260bfb731fb5d25f1aa493335a9e71297e485b7aef312c26101c08301527f1800deef121f1e76426a00665e5c4479674322d4f75edadd46debd5cd992f6ed6101e08301527f090689d0585ff075ec9e99ad690c3395bc4b313370b38ef355acdadcd122975b6102008301527f12c85ea5db8c6deb4aab71808dcb408fe3d1e7690c43d37b4ce6cc0166fa7daa610220830152853561024083015260208601356102608301527f25a75837c9fb73fad6bf60e62f152320985bd764a8d9b8cfdeee5db5ce825b836102808301527f1880d19d2280ed953e8a5c9c75b7e9dcb9363af52f214a9006b6515a76d990c66102a08301527f13bcee0207dd66db9bdef0fbd7519a3e2c6e4493aaee6f1f953c4d0e46d9df586102c08301527f13856567068740870640c09bd013a00efc239f6e547837a5084570008501cfaf6102e08301526020826103008460086107d05a03fa82518116935050505095945050505050565b60405161038081016040526106356000840135610067565b6106426020840135610067565b61064f6040840135610067565b61065c6060840135610067565b6106696080840135610067565b61067660a0840135610067565b61068360c0840135610067565b610690818486888a610106565b8060005260206000f35b600080fd5b600080fd5b6000819050826020600202820111156106c0576106bf61069f565b5b92915050565b6000819050826040600202820111156106e2576106e161069f565b5b92915050565b6000819050826020600602820111156107045761070361069f565b5b92915050565b6000806000806101c085870312156107255761072461069a565b5b6000610733878288016106a4565b9450506040610744878288016106c6565b93505060c0610755878288016106a4565b925050610100610767878288016106e8565b91505092959194509250565b60008115159050919050565b61078881610773565b82525050565b60006020820190506107a3600083018461077f565b9291505056fea264697066735822122089593fab98e58f0cb58a9cb5bde167887caa8d74df5f86934473beecc705f35864736f6c63430008170033",
  "linkReferences": {},
  "deployedLinkReferences": {}
}